{
  "contractName": "ItemManager",
  "abi": [
    {
      "anonymous": false,
      "inputs": [
        {
          "indexed": false,
          "internalType": "uint256",
          "name": "_itemIndex",
          "type": "uint256"
        },
        {
          "indexed": false,
          "internalType": "uint256",
          "name": "_step",
          "type": "uint256"
        },
        {
          "indexed": false,
          "internalType": "address",
          "name": "_itemAddress",
          "type": "address"
        }
      ],
      "name": "SupplyChainStep",
      "type": "event"
    },
    {
      "inputs": [],
      "name": "getOwner",
      "outputs": [
        {
          "internalType": "address",
          "name": "",
          "type": "address"
        }
      ],
      "stateMutability": "view",
      "type": "function",
      "constant": true
    },
    {
      "inputs": [],
      "name": "isOwner",
      "outputs": [
        {
          "internalType": "bool",
          "name": "",
          "type": "bool"
        }
      ],
      "stateMutability": "view",
      "type": "function",
      "constant": true
    },
    {
      "inputs": [],
      "name": "itemIndex",
      "outputs": [
        {
          "internalType": "uint256",
          "name": "",
          "type": "uint256"
        }
      ],
      "stateMutability": "view",
      "type": "function",
      "constant": true
    },
    {
      "inputs": [
        {
          "internalType": "uint256",
          "name": "",
          "type": "uint256"
        }
      ],
      "name": "items",
      "outputs": [
        {
          "internalType": "contract Item",
          "name": "_item",
          "type": "address"
        },
        {
          "internalType": "string",
          "name": "_identifier",
          "type": "string"
        },
        {
          "internalType": "string",
          "name": "_image",
          "type": "string"
        },
        {
          "internalType": "uint256",
          "name": "_itemPrice",
          "type": "uint256"
        },
        {
          "internalType": "address",
          "name": "_itemAddress",
          "type": "address"
        },
        {
          "internalType": "enum ItemManager.SupplyChainState",
          "name": "_state",
          "type": "uint8"
        }
      ],
      "stateMutability": "view",
      "type": "function",
      "constant": true
    },
    {
      "inputs": [
        {
          "internalType": "address payable",
          "name": "newOwner",
          "type": "address"
        }
      ],
      "name": "setOwner",
      "outputs": [],
      "stateMutability": "nonpayable",
      "type": "function"
    },
    {
      "inputs": [],
      "name": "getItemIndex",
      "outputs": [
        {
          "internalType": "uint256",
          "name": "",
          "type": "uint256"
        }
      ],
      "stateMutability": "view",
      "type": "function",
      "constant": true
    },
    {
      "inputs": [
        {
          "internalType": "string",
          "name": "_identifier",
          "type": "string"
        },
        {
          "internalType": "string",
          "name": "_image",
          "type": "string"
        },
        {
          "internalType": "uint256",
          "name": "_itemPrice",
          "type": "uint256"
        },
        {
          "internalType": "address",
          "name": "_ownerCreate",
          "type": "address"
        }
      ],
      "name": "createItem",
      "outputs": [],
      "stateMutability": "nonpayable",
      "type": "function"
    },
    {
      "inputs": [
        {
          "internalType": "uint256",
          "name": "_itemIndex",
          "type": "uint256"
        }
      ],
      "name": "triggerPayment",
      "outputs": [],
      "stateMutability": "payable",
      "type": "function",
      "payable": true
    },
    {
      "inputs": [
        {
          "internalType": "uint256",
          "name": "_itemIndex",
          "type": "uint256"
        }
      ],
      "name": "triggerDelivery",
      "outputs": [],
      "stateMutability": "nonpayable",
      "type": "function"
    },
    {
      "inputs": [
        {
          "internalType": "uint256",
          "name": "_itemIndex",
          "type": "uint256"
        }
      ],
      "name": "removeItem",
      "outputs": [],
      "stateMutability": "nonpayable",
      "type": "function"
    },
    {
      "inputs": [
        {
          "internalType": "uint256",
          "name": "_itemIndex",
          "type": "uint256"
        },
        {
          "internalType": "string",
          "name": "_identifier",
          "type": "string"
        },
        {
          "internalType": "string",
          "name": "_image",
          "type": "string"
        },
        {
          "internalType": "uint256",
          "name": "_itemPrice",
          "type": "uint256"
        }
      ],
      "name": "updateItem",
      "outputs": [],
      "stateMutability": "nonpayable",
      "type": "function"
    }
  ],
  "bytecode": "0x60806040526000600255336000806101000a81548173ffffffffffffffffffffffffffffffffffffffff021916908373ffffffffffffffffffffffffffffffffffffffff160217905550611d6c806100586000396000f3fe60806040526004361061009c5760003560e01c80638f32d59b116100645780638f32d59b14610325578063b4e6fabd14610354578063bfb231d21461037f578063cd31831e14610521578063cec95df71461055c578063e07bb1a7146106e55761009c565b806306a6034f146100a157806313af4035146102145780637132917114610265578063800fb83f146102a0578063893d20e8146102ce575b600080fd5b3480156100ad57600080fd5b50610212600480360360808110156100c457600080fd5b8101908080359060200190929190803590602001906401000000008111156100eb57600080fd5b8201836020820111156100fd57600080fd5b8035906020019184600183028401116401000000008311171561011f57600080fd5b91908080601f016020809104026020016040519081016040528093929190818152602001838380828437600081840152601f19601f8201169050808301925050505050505091929192908035906020019064010000000081111561018257600080fd5b82018360208201111561019457600080fd5b803590602001918460018302840111640100000000831117156101b657600080fd5b91908080601f016020809104026020016040519081016040528093929190818152602001838380828437600081840152601f19601f82011690508083019250505050505050919291929080359060200190929190505050610710565b005b34801561022057600080fd5b506102636004803603602081101561023757600080fd5b81019080803573ffffffffffffffffffffffffffffffffffffffff1690602001909291905050506109bf565b005b34801561027157600080fd5b5061029e6004803603602081101561028857600080fd5b8101908080359060200190929190505050610a02565b005b6102cc600480360360208110156102b657600080fd5b8101908080359060200190929190505050610ca4565b005b3480156102da57600080fd5b506102e3610eef565b604051808273ffffffffffffffffffffffffffffffffffffffff1673ffffffffffffffffffffffffffffffffffffffff16815260200191505060405180910390f35b34801561033157600080fd5b5061033a610f18565b604051808215151515815260200191505060405180910390f35b34801561036057600080fd5b50610369610f6f565b6040518082815260200191505060405180910390f35b34801561038b57600080fd5b506103b8600480360360208110156103a257600080fd5b8101908080359060200190929190505050610f79565b604051808773ffffffffffffffffffffffffffffffffffffffff1673ffffffffffffffffffffffffffffffffffffffff16815260200180602001806020018681526020018573ffffffffffffffffffffffffffffffffffffffff1673ffffffffffffffffffffffffffffffffffffffff16815260200184600281111561043a57fe5b60ff168152602001838103835288818151815260200191508051906020019080838360005b8381101561047a57808201518184015260208101905061045f565b50505050905090810190601f1680156104a75780820380516001836020036101000a031916815260200191505b50838103825287818151815260200191508051906020019080838360005b838110156104e05780820151818401526020810190506104c5565b50505050905090810190601f16801561050d5780820380516001836020036101000a031916815260200191505b509850505050505050505060405180910390f35b34801561052d57600080fd5b5061055a6004803603602081101561054457600080fd5b8101908080359060200190929190505050611132565b005b34801561056857600080fd5b506106e36004803603608081101561057f57600080fd5b810190808035906020019064010000000081111561059c57600080fd5b8201836020820111156105ae57600080fd5b803590602001918460018302840111640100000000831117156105d057600080fd5b91908080601f016020809104026020016040519081016040528093929190818152602001838380828437600081840152601f19601f8201169050808301925050505050505091929192908035906020019064010000000081111561063357600080fd5b82018360208201111561064557600080fd5b8035906020019184600183028401116401000000008311171561066757600080fd5b91908080601f016020809104026020016040519081016040528093929190818152602001838380828437600081840152601f19601f82011690508083019250505050505050919291929080359060200190929190803573ffffffffffffffffffffffffffffffffffffffff16906020019092919050505061136d565b005b3480156106f157600080fd5b506106fa6116ae565b6040518082815260200191505060405180910390f35b610718610f18565b61078a576040517f08c379a00000000000000000000000000000000000000000000000000000000081526004018080602001828103825260118152602001807f596f7520617265206e6f74206f776e657200000000000000000000000000000081525060200191505060405180910390fd5b6000600281111561079757fe5b6001600086815260200190815260200160002060040160149054906101000a900460ff1660028111156107c657fe5b14610839576040517f08c379a000000000000000000000000000000000000000000000000000000000815260040180806020018281038252601c8152602001807f4974656d206e6f7420656c696769626c6520746f20757064617465210000000081525060200191505060405180910390fd5b826001600086815260200190815260200160002060010190805190602001906108639291906116b4565b508160016000868152602001908152602001600020600201908051906020019061088e9291906116b4565b5080600160008681526020019081526020016000206003018190555060006001600086815260200190815260200160002060040160146101000a81548160ff021916908360028111156108dd57fe5b02179055507fa4035636e99f06b7651a604c1019fa4e8779fe68ef27eeb74dff2de348f6199b846001600087815260200190815260200160002060040160149054906101000a900460ff16600281111561093357fe5b6001600088815260200190815260200160002060000160009054906101000a900473ffffffffffffffffffffffffffffffffffffffff16604051808481526020018381526020018273ffffffffffffffffffffffffffffffffffffffff1673ffffffffffffffffffffffffffffffffffffffff168152602001935050505060405180910390a150505050565b806000806101000a81548173ffffffffffffffffffffffffffffffffffffffff021916908373ffffffffffffffffffffffffffffffffffffffff16021790555050565b610a0a610f18565b610a7c576040517f08c379a00000000000000000000000000000000000000000000000000000000081526004018080602001828103825260118152602001807f596f7520617265206e6f74206f776e657200000000000000000000000000000081525060200191505060405180910390fd5b600280811115610a8857fe5b6001600083815260200190815260200160002060040160149054906101000a900460ff166002811115610ab757fe5b14610b2a576040517f08c379a000000000000000000000000000000000000000000000000000000000815260040180806020018281038252601c8152602001807f4974656d206e6f7420656c696769626c6520746f2064656c657465210000000081525060200191505060405180910390fd5b60016000828152602001908152602001600020600080820160006101000a81549073ffffffffffffffffffffffffffffffffffffffff0219169055600182016000610b759190611734565b600282016000610b859190611734565b60038201600090556004820160006101000a81549073ffffffffffffffffffffffffffffffffffffffff02191690556004820160146101000a81549060ff021916905550507fa4035636e99f06b7651a604c1019fa4e8779fe68ef27eeb74dff2de348f6199b816001600084815260200190815260200160002060040160149054906101000a900460ff166002811115610c1b57fe5b6001600085815260200190815260200160002060000160009054906101000a900473ffffffffffffffffffffffffffffffffffffffff16604051808481526020018381526020018273ffffffffffffffffffffffffffffffffffffffff1673ffffffffffffffffffffffffffffffffffffffff168152602001935050505060405180910390a150565b34600160008381526020019081526020016000206003015414610d2f576040517f08c379a000000000000000000000000000000000000000000000000000000000815260040180806020018281038252601c8152602001807f4f6e6c792066756c6c207061796d656e7473206163636570746564210000000081525060200191505060405180910390fd5b60006002811115610d3c57fe5b6001600083815260200190815260200160002060040160149054906101000a900460ff166002811115610d6b57fe5b14610dde576040517f08c379a000000000000000000000000000000000000000000000000000000000815260040180806020018281038252601d8152602001807f4974656d206973206675727468657220696e2074686520636861696e2100000081525060200191505060405180910390fd5b600180600083815260200190815260200160002060040160146101000a81548160ff02191690836002811115610e1057fe5b02179055507fa4035636e99f06b7651a604c1019fa4e8779fe68ef27eeb74dff2de348f6199b816001600084815260200190815260200160002060040160149054906101000a900460ff166002811115610e6657fe5b6001600085815260200190815260200160002060000160009054906101000a900473ffffffffffffffffffffffffffffffffffffffff16604051808481526020018381526020018273ffffffffffffffffffffffffffffffffffffffff1673ffffffffffffffffffffffffffffffffffffffff168152602001935050505060405180910390a150565b60008060009054906101000a900473ffffffffffffffffffffffffffffffffffffffff16905090565b60008060009054906101000a900473ffffffffffffffffffffffffffffffffffffffff1673ffffffffffffffffffffffffffffffffffffffff163373ffffffffffffffffffffffffffffffffffffffff1614905090565b6000600254905090565b60016020528060005260406000206000915090508060000160009054906101000a900473ffffffffffffffffffffffffffffffffffffffff1690806001018054600181600116156101000203166002900480601f01602080910402602001604051908101604052809291908181526020018280546001816001161561010002031660029004801561104b5780601f106110205761010080835404028352916020019161104b565b820191906000526020600020905b81548152906001019060200180831161102e57829003601f168201915b505050505090806002018054600181600116156101000203166002900480601f0160208091040260200160405190810160405280929190818152602001828054600181600116156101000203166002900480156110e95780601f106110be576101008083540402835291602001916110e9565b820191906000526020600020905b8154815290600101906020018083116110cc57829003601f168201915b5050505050908060030154908060040160009054906101000a900473ffffffffffffffffffffffffffffffffffffffff16908060040160149054906101000a900460ff16905086565b61113a610f18565b6111ac576040517f08c379a00000000000000000000000000000000000000000000000000000000081526004018080602001828103825260118152602001807f596f7520617265206e6f74206f776e657200000000000000000000000000000081525060200191505060405180910390fd5b600160028111156111b957fe5b6001600083815260200190815260200160002060040160149054906101000a900460ff1660028111156111e857fe5b1461125b576040517f08c379a000000000000000000000000000000000000000000000000000000000815260040180806020018281038252601d8152602001807f4974656d206973206675727468657220696e2074686520636861696e2100000081525060200191505060405180910390fd5b60026001600083815260200190815260200160002060040160146101000a81548160ff0219169083600281111561128e57fe5b02179055507fa4035636e99f06b7651a604c1019fa4e8779fe68ef27eeb74dff2de348f6199b816001600084815260200190815260200160002060040160149054906101000a900460ff1660028111156112e457fe5b6001600085815260200190815260200160002060000160009054906101000a900473ffffffffffffffffffffffffffffffffffffffff16604051808481526020018381526020018273ffffffffffffffffffffffffffffffffffffffff1673ffffffffffffffffffffffffffffffffffffffff168152602001935050505060405180910390a150565b611375610f18565b6113e7576040517f08c379a00000000000000000000000000000000000000000000000000000000081526004018080602001828103825260118152602001807f596f7520617265206e6f74206f776e657200000000000000000000000000000081525060200191505060405180910390fd5b60003083600254846040516113fb9061177c565b808573ffffffffffffffffffffffffffffffffffffffff1673ffffffffffffffffffffffffffffffffffffffff1681526020018481526020018381526020018273ffffffffffffffffffffffffffffffffffffffff1673ffffffffffffffffffffffffffffffffffffffff168152602001945050505050604051809103906000f08015801561148e573d6000803e3d6000fd5b5090508060016000600254815260200190815260200160002060000160006101000a81548173ffffffffffffffffffffffffffffffffffffffff021916908373ffffffffffffffffffffffffffffffffffffffff1602179055508460016000600254815260200190815260200160002060010190805190602001906115149291906116b4565b508360016000600254815260200190815260200160002060020190805190602001906115419291906116b4565b5082600160006002548152602001908152602001600020600301819055508060016000600254815260200190815260200160002060040160006101000a81548173ffffffffffffffffffffffffffffffffffffffff021916908373ffffffffffffffffffffffffffffffffffffffff160217905550600060016000600254815260200190815260200160002060040160146101000a81548160ff021916908360028111156115eb57fe5b02179055507fa4035636e99f06b7651a604c1019fa4e8779fe68ef27eeb74dff2de348f6199b60025460016000600254815260200190815260200160002060040160149054906101000a900460ff16600281111561164557fe5b83604051808481526020018381526020018273ffffffffffffffffffffffffffffffffffffffff1673ffffffffffffffffffffffffffffffffffffffff168152602001935050505060405180910390a16002600081548092919060010191905055505050505050565b60025481565b828054600181600116156101000203166002900490600052602060002090601f016020900481019282601f106116f557805160ff1916838001178555611723565b82800160010185558215611723579182015b82811115611722578251825591602001919060010190611707565b5b5090506117309190611789565b5090565b50805460018160011615610100020316600290046000825580601f1061175a5750611779565b601f0160209004906000526020600020908101906117789190611789565b5b50565b610588806117af83390190565b6117ab91905b808211156117a757600081600090555060010161178f565b5090565b9056fe608060405234801561001057600080fd5b506040516105883803806105888339818101604052608081101561003357600080fd5b8101908080519060200190929190805190602001909291908051906020019092919080519060200190929190505050826000819055508160028190555083600460006101000a81548173ffffffffffffffffffffffffffffffffffffffff021916908373ffffffffffffffffffffffffffffffffffffffff16021790555080600360006101000a81548173ffffffffffffffffffffffffffffffffffffffff021916908373ffffffffffffffffffffffffffffffffffffffff16021790555050505050610483806101056000396000f3fe6080604052600436106100435760003560e01c80632986c0e5146103105780633c8da5881461033b5780633de42e0e1461036657806389794d00146103bd57610301565b36610301576000600154146100c0576040517f08c379a00000000000000000000000000000000000000000000000000000000081526004018080602001828103825260168152602001807f4974656d2069732070616964206120616c72656164790000000000000000000081525060200191505060405180910390fd5b3460005414610137576040517f08c379a000000000000000000000000000000000000000000000000000000000815260040180806020018281038252601a8152602001807f4f6e6c792066756c6c207061796d656e747320616c6c6f77656400000000000081525060200191505060405180910390fd5b346001819055506000600460009054906101000a900473ffffffffffffffffffffffffffffffffffffffff1673ffffffffffffffffffffffffffffffffffffffff1634600254604051602401808281526020019150506040516020818303038152906040527f800fb83f000000000000000000000000000000000000000000000000000000007bffffffffffffffffffffffffffffffffffffffffffffffffffffffff19166020820180517bffffffffffffffffffffffffffffffffffffffffffffffffffffffff83818316178352505050506040518082805190602001908083835b6020831061023d578051825260208201915060208101905060208303925061021a565b6001836020036101000a03801982511681845116808217855250505050505090500191505060006040518083038185875af1925050503d806000811461029f576040519150601f19603f3d011682016040523d82523d6000602084013e6102a4565b606091505b50509050806102fe576040517f08c379a000000000000000000000000000000000000000000000000000000000815260040180806020018281038252602d815260200180610421602d913960400191505060405180910390fd5b50005b34801561030d57600080fd5b50005b34801561031c57600080fd5b506103256103e8565b6040518082815260200191505060405180910390f35b34801561034757600080fd5b506103506103ee565b6040518082815260200191505060405180910390f35b34801561037257600080fd5b5061037b6103f4565b604051808273ffffffffffffffffffffffffffffffffffffffff1673ffffffffffffffffffffffffffffffffffffffff16815260200191505060405180910390f35b3480156103c957600080fd5b506103d261041a565b6040518082815260200191505060405180910390f35b60025481565b60005481565b600360009054906101000a900473ffffffffffffffffffffffffffffffffffffffff1681565b6001548156fe546865207472616e73616374696f6e207761736e2774207375636365737366756c2c2063616e63656c6c696e67a26469706673582212209557509392eb01cb5f91f1d0400e359118161ca2fb65bb61525b996c97564ebd64736f6c63430006010033a2646970667358221220ed7cedd400eec3c1a56bad28f5208fe3d2b46b78a1e5db456fcc9620b2fc879964736f6c63430006010033",
  "source": "pragma solidity ^0.6.0;\r\n\r\nimport \"./Ownable.sol\";\r\nimport \"./Item.sol\";\r\n\r\ncontract ItemManager is Ownable{\r\n    enum SupplyChainState{Created, Paided, Delivered}\r\n\r\n    struct S_Item {\r\n        Item _item;\r\n        string _identifier;\r\n        string _image;\r\n        uint _itemPrice;\r\n        address _itemAddress;\r\n        ItemManager.SupplyChainState _state;\r\n    }\r\n    mapping (uint => S_Item ) public items;\r\n\r\n    uint public itemIndex = 0;\r\n\r\n    function getItemIndex() public view returns(uint){\r\n        return itemIndex;\r\n    }\r\n\r\n    event SupplyChainStep(uint _itemIndex, uint _step, address _itemAddress);\r\n    \r\n    function createItem(string memory _identifier, string memory _image, uint _itemPrice, address _ownerCreate) public onlyOwner{\r\n\r\n        Item item = new Item(this, _itemPrice, itemIndex, _ownerCreate);\r\n\r\n        items[itemIndex]._item = item;\r\n        items[itemIndex]._identifier = _identifier;\r\n        items[itemIndex]._image = _image;\r\n        items[itemIndex]._itemPrice = _itemPrice;\r\n        items[itemIndex]._itemAddress = address(item);\r\n        items[itemIndex]._state = SupplyChainState.Created;\r\n\r\n        emit SupplyChainStep(itemIndex, uint(items[itemIndex]._state), address(item));\r\n        itemIndex ++;\r\n\r\n    }\r\n\r\n    function triggerPayment(uint _itemIndex) public payable{\r\n        require(items[_itemIndex]._itemPrice == msg.value, \"Only full payments accepted!\");\r\n        require(items[_itemIndex]._state == SupplyChainState.Created, \"Item is further in the chain!\");\r\n        items[_itemIndex]._state = SupplyChainState.Paided;\r\n        emit SupplyChainStep(_itemIndex, uint(items[_itemIndex]._state), address(items[_itemIndex]._item));\r\n    \r\n    }\r\n\r\n    function triggerDelivery(uint _itemIndex)public onlyOwner{        \r\n        require(items[_itemIndex]._state == SupplyChainState.Paided, \"Item is further in the chain!\");\r\n        items[_itemIndex]._state = SupplyChainState.Delivered;\r\n        emit SupplyChainStep(_itemIndex, uint(items[_itemIndex]._state), address(items[_itemIndex]._item));\r\n    }\r\n\r\n    function removeItem(uint _itemIndex) public onlyOwner {\r\n        require(items[_itemIndex]._state == SupplyChainState.Delivered, \"Item not eligible to delete!\");\r\n        delete items[_itemIndex];\r\n        emit SupplyChainStep(_itemIndex, uint(items[_itemIndex]._state), address(items[_itemIndex]._item));\r\n    }\r\n    \r\n     function updateItem(uint _itemIndex, string memory _identifier,string memory _image, uint _itemPrice ) public onlyOwner {\r\n        require(items[_itemIndex]._state == SupplyChainState.Created, \"Item not eligible to update!\");\r\n        items[_itemIndex]._identifier = _identifier;\r\n        items[_itemIndex]._image = _image;\r\n        items[_itemIndex]._itemPrice = _itemPrice;\r\n        items[_itemIndex]._state = SupplyChainState.Created;\r\n        emit SupplyChainStep(_itemIndex, uint(items[_itemIndex]._state), address(items[_itemIndex]._item));\r\n    }\r\n}",
  "sourcePath": "E:\\demo-truffle\\contracts\\ItemManager.sol",
  "compiler": {
    "name": "solc",
    "version": "0.6.1+commit.e6f7d5a4.Emscripten.clang"
  },
  "schemaVersion": "3.4.3",
  "updatedAt": "2022-01-05T12:16:10.704Z",
  "networkType": "ethereum",
  "devdoc": {
    "methods": {}
  },
  "userdoc": {
    "methods": {}
  }
}